:100000000C942F010C944E010C944E010C944E0153
:100010000C944E010C944E010C944E010C944E0124
:100020000C944E010C944E010C944E010C944E0114
:100030000C944E010C944E010C944E010C944E0104
:100040000C944E010C944E010C944E010C944E01F4
:100050000C944E010C944E010C944E010C944E01E4
:100060000C944E010C94FC020C9426030C944E014B
:100070000C9450030C94AE030C944E010C944E015E
:100080000C944E010C944E010C944E010C944E01B4
:100090000C944E010C944E010C944E010C944E01A4
:1000A0000C944E010C944E010C944E010C944E0194
:1000B0000C944E010C944E010C944E010C944E0184
:1000C0000C944E010C944E010C944E010C944E0174
:1000D0000C944E010C944E010C944E010C944E0164
:1000E0000C944E010C944E010C944E010C944E0154
:1000F0000C944E010C944E010C944E010C944E0144
:100100000C944E010C944E010C944E010C944E0133
:100110000C944E010C944E010C944E010C944E0123
:100120000C944E010C944E010C944E010C944E0113
:100130000C944E010C944E010C944E010C944E0103
:100140000C944E010C944E010C944E010C944E01F3
:100150000C944E010C944E010C944E010C944E01E3
:100160000C944E010C944E010C944E010C944E01D3
:100170000C944E010C944E010C944E010C944E01C3
:100180000C944E010C944E010C944E010C944E01B3
:100190000C944E010C944E010C944E010C944E01A3
:1001A0000C944E010C944E010C944E010C944E0193
:1001B0000C944E010C944E010C944E010C944E0183
:1001C0000C944E010C944E010C944E010C944E0173
:1001D0000C944E010C944E010C944E010C944E0163
:1001E0000C944E010C944E010C944E010C944E0153
:1001F0000C944E010C944E010C944E01496E69749E
:100200007320636F6D706C657465210A0D007265F3
:1002100063656976655F737472696E675F66726F36
:100220006D5F75736172742061626F757420746F95
:100230002071756974210A0D0072656365697665C0
:100240005F737472696E675F66726F6D5F757361FD
:10025000727420656E7465726564210A0D00112444
:100260001FBECFEFCDBFDFE2DEBF10E2A0E0B0E205
:10027000E2E0F9E000E00BBF02C007900D92A4336A
:10028000B107D9F720E2A4E3B0E201C01D92A43A7D
:10029000B207E1F70E94C6010C947F040C940000A1
:1002A0000F93CF93DF931F92CDB7DEB72FB729837C
:1002B000F8941BBEFC0108ED04BF608389818FBFE9
:1002C0000F90DF91CF910F910895E0E5F0E09081DC
:1002D000282F2095922390839081892308950F934E
:1002E0001F93CF93C82F00E410E0F8016081687F6E
:1002F000682B80E490E00E945001F80180818C23FB
:10030000CF911F910F91089520915600382F982F6B
:1003100090959223611101C030E0932B9093560089
:10032000813031F4E8E6F0E08081816080830895D7
:10033000863029F4E0E6F0E08081816080830895D2
:1003400061E082E490E00E9450010895E0E5F0E071
:10035000808184608083818182FFFDCF60E086E0C0
:100360000E948401E0E5F0E08081826080838181E9
:1003700081FFFDCF81E00E946F0182E00E94650154
:1003800084E00E9465010E94A0010895CF93DF934D
:10039000CDB7DEB76E97CDBFDEBF0E94A6012FE7B7
:1003A00088E391E0215080409040E1F700C00000D8
:1003B0000E943D020E94690278946CEF71E08DE624
:1003C00090E20E94950260E070E28DE690E20E9469
:1003D000B1022FE788E391E0215080409040E1F79F
:1003E00000C000002FEF84E39CE02150804090404B
:1003F000E1F700C0000068E070E28DE690E20E9444
:10040000B10242E0BE016F5F7F4F80913420909136
:1004100035200E944A04BE016F5F7F4F8DE690E257
:100420000E94B10265E070E28DE690E20E94B102A6
:100430008091342090913520892BA1F269E170E2FE
:100440008DE690E20E94B102BE01655F7F4F8DE6AE
:1004500090E20E94C502BE01655F7F4F8DE690E28B
:100460000E94B10265E070E28DE690E20E94B10266
:100470001092342010923520B5CFE0E4F6E084E00D
:10048000828388E0818341E060EA78E086E390E25D
:100490000E94D803E0913620F091372083E28583D3
:1004A00083818F7C80618383A0EAB8E083E716961E
:1004B0008C93169786EC17968C9384818061848345
:1004C000848188608483E0EAF0E0828181608283B5
:1004D0000895E0E4F6E080E4828380E8818341E0EF
:1004E00060EB78E08DE690E20E94D803E0916D2009
:1004F000F0916E2083E0858383818F7C806183838C
:10050000A0EBB8E087E316968C93169784EB1796CA
:100510008C93848180618483848188608483E0EA11
:10052000F0E08281816082830895EF92FF920F93C1
:100530001F93CF938C01E62EF72EF701C491CC23A5
:1005400051F06C2FC8010E94EB038823D1F3FFEF19
:10055000EF1AFF0AF2CFCF911F910F91FF90EF900A
:1005600008950F931F93CF93DF938C01EB0105C088
:10057000C8010E94EB038111219668816111F8CFB7
:10058000DF91CF911F910F910895CF92DF92EF925B
:10059000FF920F931F93CF93DF938C016B0169E35D
:1005A00072E08DE690E20E9495027601C0E0D0E014
:1005B00007C0C8010E940F04F70181937F012196B3
:1005C000C8010E9407048111F4CFCC0DDD1D1882F3
:1005D000B6018DE690E20E94B1026EE072E08DE617
:1005E00090E20E949502DF91CF911F910F91FF90B1
:1005F000EF90DF90CF9008951F920F920FB60F9259
:1006000011240BB60F922F933F934F935F936F93E9
:100610007F938F939F93AF93BF93EF93FF9386E363
:1006200090E20E941B04FF91EF91BF91AF919F91C7
:100630008F917F916F915F914F913F912F910F908B
:100640000BBE0F900FBE0F901F9018951F920F9228
:100650000FB60F9211240BB60F922F933F934F9327
:100660005F936F937F938F939F93AF93BF93EF931A
:10067000FF9386E390E20E943004FF91EF91BF91D7
:10068000AF919F918F917F916F915F914F913F912A
:100690002F910F900BBE0F900FBE0F901F901895CB
:1006A0001F920F920FB60F9211240BB60F922F9339
:1006B0003F934F935F936F937F938F939F93AF93EA
:1006C000BF93EF93FF93CF93DF93CDB7DEB72A9716
:1006D000CDBFDEBF8DE690E20E941B04E091A0201A
:1006E000F0E03197EF71FF27E359FF4D83818D30A3
:1006F000E9F46BE270E28DE690E20E94B102809133
:1007000034209091352042E0BE016F5F7F4F0E9400
:100710004A04BE016F5F7F4F8DE690E20E94B102F6
:1007200081E090E080933420909335202A96CDBFCD
:10073000DEBFDF91CF91FF91EF91BF91AF919F917C
:100740008F917F916F915F914F913F912F910F907A
:100750000BBE0F900FBE0F901F9018951F920F9217
:100760000FB60F9211240BB60F922F933F934F9316
:100770005F936F937F938F939F93AF93BF93EF9309
:10078000FF938DE690E20E943004FF91EF91BF91BC
:10079000AF919F918F917F916F915F914F913F9119
:1007A0002F910F900BBE0F900FBE0F901F901895BA
:1007B000FC0160837183428314AA13AA16AA15AAA6
:1007C0000895FC0195A926A99F5F9F7081E092136F
:1007D00001C080E008951F93CF93DF93EC01162FA3
:1007E0000E94E103882379F09DA9FE01E90FF11D24
:1007F00013A39F5F9F709DABE881F98193819C7FDC
:100800002A81922B9383DF91CF911F910895FC0150
:1008100023A994A981E0291301C080E00895FC0177
:1008200084A9DF01A80FB11D13968C9194A99F5F35
:100830009F7194AB0895FC0193A99F5F9F7184A958
:10084000A081B1812C91981749F083A9DF01A80FED
:10085000B11D13962C9393AB81E0089580E0089529
:10086000FC0186A995A9981307C00190F081E02D9D
:1008700083818C7F8383089586A9DF01A80FB11D32
:1008800093968C91A081B1818C9386A98F5F8F7094
:1008900086AB0895BB274A3031F4992322F4BDE298
:1008A000909581959F4F0C945604BB27FB015527CB
:1008B000AA27880F991FAA1FA41710F0A41B8395BD
:1008C0005051B9F7A05DAA3308F0A95DA193009734
:1008D00079F7B111B1931192CB010C946F04DC0143
:1008E000FC01672F71917723E1F7329704C07C9167
:1008F0006D9370836291AE17BF07C8F30895F894A3
:02090000FFCF27
:1009020054657374210A0D0076616C7565206F66FB
:10091200207265207072653A0052657420707265AB
:100922000A0D416E64207265633A00456E74657209
:040932000A0D0000AA
:00000001FF
